{"abi":[{"type":"function","name":"MAX_ANSWER_LENGTH","inputs":[],"outputs":[{"name":"","type":"uint256","internalType":"uint256"}],"stateMutability":"view"},{"type":"function","name":"MAX_SUBMISSIONS","inputs":[],"outputs":[{"name":"","type":"uint256","internalType":"uint256"}],"stateMutability":"view"},{"type":"function","name":"bounties","inputs":[{"name":"","type":"uint256","internalType":"uint256"}],"outputs":[{"name":"owner","type":"address","internalType":"address"},{"name":"title","type":"string","internalType":"string"},{"name":"rubric","type":"string","internalType":"string"},{"name":"reward","type":"uint256","internalType":"uint256"},{"name":"deadline","type":"uint256","internalType":"uint256"},{"name":"judged","type":"bool","internalType":"bool"},{"name":"finalized","type":"bool","internalType":"bool"},{"name":"aiReview","type":"bytes","internalType":"bytes"},{"name":"winnerIndex","type":"uint256","internalType":"uint256"}],"stateMutability":"view"},{"type":"function","name":"createBounty","inputs":[{"name":"title","type":"string","internalType":"string"},{"name":"rubric","type":"string","internalType":"string"},{"name":"deadline","type":"uint256","internalType":"uint256"}],"outputs":[{"name":"bountyId","type":"uint256","internalType":"uint256"}],"stateMutability":"payable"},{"type":"function","name":"createPrivateBounty","inputs":[{"name":"title","type":"string","internalType":"string"},{"name":"rubric","type":"string","internalType":"string"},{"name":"deadline","type":"uint256","internalType":"uint256"}],"outputs":[{"name":"bountyId","type":"uint256","internalType":"uint256"}],"stateMutability":"payable"},{"type":"function","name":"finalizeWinner","inputs":[{"name":"bountyId","type":"uint256","internalType":"uint256"},{"name":"winnerIndex","type":"uint256","internalType":"uint256"}],"outputs":[],"stateMutability":"nonpayable"},{"type":"function","name":"getAIReview","inputs":[{"name":"bountyId","type":"uint256","internalType":"uint256"}],"outputs":[{"name":"","type":"bytes","internalType":"bytes"}],"stateMutability":"view"},{"type":"function","name":"getBounty","inputs":[{"name":"bountyId","type":"uint256","internalType":"uint256"}],"outputs":[{"name":"owner","type":"address","internalType":"address"},{"name":"title","type":"string","internalType":"string"},{"name":"rubric","type":"string","internalType":"string"},{"name":"reward","type":"uint256","internalType":"uint256"},{"name":"deadline","type":"uint256","internalType":"uint256"},{"name":"judged","type":"bool","internalType":"bool"},{"name":"finalized","type":"bool","internalType":"bool"},{"name":"submissionCount","type":"uint256","internalType":"uint256"},{"name":"revealedSubmissionCount","type":"uint256","internalType":"uint256"},{"name":"winnerIndex","type":"uint256","internalType":"uint256"},{"name":"aiReview","type":"bytes","internalType":"bytes"}],"stateMutability":"view"},{"type":"function","name":"getPrivateSubmission","inputs":[{"name":"bountyId","type":"uint256","internalType":"uint256"},{"name":"index","type":"uint256","internalType":"uint256"}],"outputs":[{"name":"submitter","type":"address","internalType":"address"},{"name":"commitment","type":"bytes32","internalType":"bytes32"},{"name":"encryptedAnswer","type":"bytes","internalType":"bytes"}],"stateMutability":"view"},{"type":"function","name":"getPrivateSubmissionCount","inputs":[{"name":"bountyId","type":"uint256","internalType":"uint256"}],"outputs":[{"name":"","type":"uint256","internalType":"uint256"}],"stateMutability":"view"},{"type":"function","name":"getRevealedSubmission","inputs":[{"name":"bountyId","type":"uint256","internalType":"uint256"},{"name":"revealedIndex","type":"uint256","internalType":"uint256"}],"outputs":[{"name":"submissionIndex","type":"uint256","internalType":"uint256"},{"name":"submitter","type":"address","internalType":"address"},{"name":"commitment","type":"bytes32","internalType":"bytes32"},{"name":"answer","type":"string","internalType":"string"},{"name":"salt","type":"bytes32","internalType":"bytes32"}],"stateMutability":"view"},{"type":"function","name":"getRevealedSubmissionCount","inputs":[{"name":"bountyId","type":"uint256","internalType":"uint256"}],"outputs":[{"name":"","type":"uint256","internalType":"uint256"}],"stateMutability":"view"},{"type":"function","name":"getReward","inputs":[{"name":"bountyId","type":"uint256","internalType":"uint256"}],"outputs":[{"name":"","type":"uint256","internalType":"uint256"}],"stateMutability":"view"},{"type":"function","name":"getSubmission","inputs":[{"name":"bountyId","type":"uint256","internalType":"uint256"},{"name":"index","type":"uint256","internalType":"uint256"}],"outputs":[{"name":"submitter","type":"address","internalType":"address"},{"name":"commitment","type":"bytes32","internalType":"bytes32"},{"name":"answer","type":"string","internalType":"string"},{"name":"salt","type":"bytes32","internalType":"bytes32"},{"name":"revealed","type":"bool","internalType":"bool"},{"name":"encryptedAnswer","type":"bytes","internalType":"bytes"}],"stateMutability":"view"},{"type":"function","name":"getSubmissionCount","inputs":[{"name":"bountyId","type":"uint256","internalType":"uint256"}],"outputs":[{"name":"","type":"uint256","internalType":"uint256"}],"stateMutability":"view"},{"type":"function","name":"getSubmissionIndex","inputs":[{"name":"bountyId","type":"uint256","internalType":"uint256"},{"name":"submitter","type":"address","internalType":"address"}],"outputs":[{"name":"","type":"uint256","internalType":"uint256"}],"stateMutability":"view"},{"type":"function","name":"getWinnerIndex","inputs":[{"name":"bountyId","type":"uint256","internalType":"uint256"}],"outputs":[{"name":"","type":"uint256","internalType":"uint256"}],"stateMutability":"view"},{"type":"function","name":"isFinalized","inputs":[{"name":"bountyId","type":"uint256","internalType":"uint256"}],"outputs":[{"name":"","type":"bool","internalType":"bool"}],"stateMutability":"view"},{"type":"function","name":"isJudged","inputs":[{"name":"bountyId","type":"uint256","internalType":"uint256"}],"outputs":[{"name":"","type":"bool","internalType":"bool"}],"stateMutability":"view"},{"type":"function","name":"isPrivateBounty","inputs":[{"name":"bountyId","type":"uint256","internalType":"uint256"}],"outputs":[{"name":"","type":"bool","internalType":"bool"}],"stateMutability":"view"},{"type":"function","name":"judgeAll","inputs":[{"name":"bountyId","type":"uint256","internalType":"uint256"},{"name":"llmInput","type":"bytes","internalType":"bytes"}],"outputs":[],"stateMutability":"nonpayable"},{"type":"function","name":"nextBountyId","inputs":[],"outputs":[{"name":"","type":"uint256","internalType":"uint256"}],"stateMutability":"view"},{"type":"function","name":"revealAnswer","inputs":[{"name":"bountyId","type":"uint256","internalType":"uint256"},{"name":"answer","type":"string","internalType":"string"},{"name":"salt","type":"bytes32","internalType":"bytes32"}],"outputs":[],"stateMutability":"nonpayable"},{"type":"function","name":"submitCommitment","inputs":[{"name":"bountyId","type":"uint256","internalType":"uint256"},{"name":"commitment","type":"bytes32","internalType":"bytes32"}],"outputs":[],"stateMutability":"nonpayable"},{"type":"function","name":"submitEncryptedCommitment","inputs":[{"name":"bountyId","type":"uint256","internalType":"uint256"},{"name":"commitment","type":"bytes32","internalType":"bytes32"},{"name":"encryptedAnswer","type":"bytes","internalType":"bytes"}],"outputs":[],"stateMutability":"nonpayable"},{"type":"event","name":"AllAnswersJudged","inputs":[{"name":"bountyId","type":"uint256","indexed":true,"internalType":"uint256"},{"name":"aiReview","type":"bytes","indexed":false,"internalType":"bytes"}],"anonymous":false},{"type":"event","name":"AnswerRevealed","inputs":[{"name":"bountyId","type":"uint256","indexed":true,"internalType":"uint256"},{"name":"submissionIndex","type":"uint256","indexed":true,"internalType":"uint256"},{"name":"submitter","type":"address","indexed":true,"internalType":"address"}],"anonymous":false},{"type":"event","name":"BountyCreated","inputs":[{"name":"bountyId","type":"uint256","indexed":true,"internalType":"uint256"},{"name":"owner","type":"address","indexed":true,"internalType":"address"},{"name":"title","type":"string","indexed":false,"internalType":"string"},{"name":"reward","type":"uint256","indexed":false,"internalType":"uint256"},{"name":"deadline","type":"uint256","indexed":false,"internalType":"uint256"}],"anonymous":false},{"type":"event","name":"CommitmentSubmitted","inputs":[{"name":"bountyId","type":"uint256","indexed":true,"internalType":"uint256"},{"name":"submissionIndex","type":"uint256","indexed":true,"internalType":"uint256"},{"name":"submitter","type":"address","indexed":true,"internalType":"address"},{"name":"commitment","type":"bytes32","indexed":false,"internalType":"bytes32"}],"anonymous":false},{"type":"event","name":"PrivateCommitmentSubmitted","inputs":[{"name":"bountyId","type":"uint256","indexed":true,"internalType":"uint256"},{"name":"submissionIndex","type":"uint256","indexed":true,"internalType":"uint256"},{"name":"submitter","type":"address","indexed":true,"internalType":"address"},{"name":"commitment","type":"bytes32","indexed":false,"internalType":"bytes32"}],"anonymous":false},{"type":"event","name":"WinnerFinalized","inputs":[{"name":"bountyId","type":"uint256","indexed":true,"internalType":"uint256"},{"name":"winnerIndex","type":"uint256","indexed":true,"internalType":"uint256"},{"name":"winner","type":"address","indexed":true,"internalType":"address"},{"name":"reward","type":"uint256","indexed":false,"internalType":"uint256"}],"anonymous":false},{"type":"event","name":"RevealedAnswersBundleCommitted","inputs":[{"name":"bountyId","type":"uint256","indexed":true,"internalType":"uint256"},{"name":"revealedAnswersRef","type":"string","indexed":false,"internalType":"string"},{"name":"revealedAnswersHash","type":"bytes32","indexed":false,"internalType":"bytes32"}],"anonymous":false},{"type":"function","name":"commitRevealedAnswersBundle","stateMutability":"nonpayable","inputs":[{"name":"bountyId","type":"uint256","internalType":"uint256"},{"name":"revealedAnswersRef","type":"string","internalType":"string"},{"name":"revealedAnswersHash","type":"bytes32","internalType":"bytes32"}],"outputs":[]},{"type":"function","name":"getRevealedAnswersBundle","stateMutability":"view","inputs":[{"name":"bountyId","type":"uint256","internalType":"uint256"}],"outputs":[{"name":"revealedAnswersRef","type":"string","internalType":"string"},{"name":"revealedAnswersHash","type":"bytes32","internalType":"bytes32"}]}],"bytecode":{"object":"0x6080806040523461001a5760015f556123d5908161001f8239f35b5f80fdfe604060808152600480361015610013575f80fd5b5f3560e01c9081631096061414611cb15781631c4b774b14611c6a5781631ffc21be14611c1e5781632bfa7d60146119e057816333727c4d1461199157816335189e49146118e05781633efde9ca1461181a5781634d4445a0146117d35781635a7722f1146115e55781637be24cb81461159e5781638e78968314611583578163947454c91461153f578163a5b679c2146114f8578163b75daff31461149c578163b7ed7071146113ae578163d5198a7114610fba578163d8964ee914610cff578163dc2f874414610c0c578163e2384c2514610b9e578163e6a3d9dc146107f9578163e90c8fd014610570578163ee8c4bbf14610442578163eff23a461461016c57508063fd14fad41461014f5763fd3a832914610130575f80fd5b3461014b575f36600319011261014b57602090516107d08152f35b5f80fd5b503461014b575f36600319011261014b576020905f549051908152f35b90503461014b57606036600319011261014b57803560248035936044359167ffffffffffffffff80841161014b578585916101ac60ff9636908401611cfa565b845f95929552610219886005896102016001986101f760209e8f948c865260018060a01b039a6101e28c835f2054161515611ee6565b5f528c86526002815f2096525f205416612057565b8201544210612282565b015461020f82821615612245565b60081c1615612169565b885f526003885261022f600a885f2054106122c3565b885f5260058852865f20335f52885261024b875f205415612306565b885f5260038852865f20918751926060840184811086821117610430578952338452898401928d845261027d816121ec565b9761028a8b51998a611ec4565b818952368282011161014b57815f928d92838c013789010152888401968752805490600160401b82101561043057906102c79187820181556120cf565b93909361041f575183546001600160a01b03191691161782555183820155925180516002949094019391821161040d5761030b826103058654611dcb565b86611fc4565b8692601f83116001146103ae5750610339925f91836103a3575b50508160011b915f199060031b1c19161790565b90555b835f5260038352815f20549460058452825f20335f52845285835f20555f198601958611610392575050907f6e3d0290a13146409b5f3d12656abe797529a50abf3402bc419bc1067db771d991519485523394a4005b601190634e487b7160e01b5f52525ffd5b015190505f80610325565b92601f19831691855f5283895f20935f5b8b888383106103f657505050106103de575b505050811b01905561033c565b01515f1960f88460031b161c191690555f80806103d1565b8686015188559096019594850194879350016103bf565b8460418a634e487b7160e01b5f52525ffd5b875f8d634e487b7160e01b8252525ffd5b8860418e634e487b7160e01b5f52525ffd5b90503461014b57602036600319011261014b5761056c816006610521946104d29435805f52600160205260018060a01b0361048381845f2054161515611ee6565b815f52600160205260ff610499845f2093612346565b9390928154169461052d6003830154988301549160058401549360078101549882519d8e806104cb8160018701611e03565b0390611ec4565b6105068351926104f0846104e98160028501611e03565b0385611ec4565b6104ff8551809e819301611e03565b038c611ec4565b82519e8f9e8f92610160908452806020850152830190611d8d565b92818403910152611d8d565b9760608b015260808a0152818116151560a08a015260081c16151560c088015260e0870152610100860152610120850152838203610140850152611d8d565b0390f35b8261057a36611d28565b909493610588341515611f25565b610593428311611f63565b5f549561059f87611fa2565b5f55865f52600190602098828a52875f2091336bffffffffffffffffffffffff60a01b8454161783558383019667ffffffffffffffff97888a116107e6576105f18a6105eb8354611dcb565b83611fc4565b895f8e6001601f84111461078357509080610620925f91610778575b508160011b915f199060031b1c19161790565b90555b6002840197821161076557908a96959493929161064a826106448b54611dcb565b8b611fc4565b5f908d601f84116001146106d95750828894935f805160206123808339815191529a9b9361068c935f926106ce5750508160011b915f199060031b1c19161790565b90555b34600384015582015560075f19910155845f5260028952865f209060ff198254161790556106c586519283923397349185612033565b0390a351908152f35b013590505f80610325565b91601f1984168b5f52835f20935f905b82821061073757505092879285928b97965f805160206123808339815191529d9e961061071e575b505050811b01905561068f565b01355f19600384901b60f8161c191690558f8080610711565b898497989a9c9e999b9d5085968294958394970135815501960193018f9b99979c9a989695949392916106e9565b604183634e487b7160e01b5f525260245ffd5b90508901355f61060d565b91601f198116845f52835f20935f905b8b8d8484106107cd5750505050106107b4575b5050858a811b019055610623565b8801355f1960038d901b60f8161c191690558d806107a6565b860135875590950194938401938f935090810190610793565b604184634e487b7160e01b5f525260245ffd5b90503461014b578160031936011261014b57803560243592815f5260019060209180835260018060a01b0361083481845f2054161515611ee6565b845f528184526008835f2061084d888201544210612282565b865f526002865261086460ff865f20541615612208565b61088360ff600583015461087a82821615612245565b841c1615612169565b0191825491610894600a84106122c3565b865f52878652845f20335f5286526108af855f205415612306565b8451926108bb84611e94565b5f845285519060c082019267ffffffffffffffff9383811085821117610b8b5788523383528883018c81528851906108f282611e94565b5f825289850191825260608501925f845260808601945f865260a08701998a52600160401b811015610b7857808961092d92018c558b612111565b969096610b66575186546001600160a01b031916911617855551868501555180516002850191868211610b535761096e826109688554611dcb565b85611fc4565b8b90601f8311600114610ada5791806109a292600598979695945f926103a35750508160011b915f199060031b1c19161790565b90555b5160038301558a82019051151560ff801983541691161790550192518051918211610ac7576109d8826103058654611dcb565b8692601f8311600114610a685750610a05925f91836103a35750508160011b915f199060031b1c19161790565b90555b5493835f52808352815f20335f52835284825f20555f198501948511610a555750907f321d5fdb70890967d189113617c8111202ccfaba27c48f140fbb3989bcbb044091519485523394a4005b601190634e487b7160e01b5f525260245ffd5b92601f19831691855f5283895f20935f5b8b88838310610ab05750505010610a98575b505050811b019055610a08565b01515f1960f88460031b161c191690555f8080610a8b565b868601518855909601959485019487935001610a79565b604189634e487b7160e01b5f525260245ffd5b95949392918c8992601f198316855f52825f20925f905b828210610b2a575050988360059a10610b12575b505050811b0190556109a5565b01515f1960f88460031b161c191690555f8080610b05565b9192958b9487849397999a9b9c9d015181550195019301908f918c95939a999897969492610af1565b60418e634e487b7160e01b5f525260245ffd5b5f8f634e487b7160e01b82525260245ffd5b60418f634e487b7160e01b5f525260245ffd5b60418c634e487b7160e01b5f525260245ffd5b90503461014b57602036600319011261014b5761056c91610bf39135805f526001602052610bd860018060a01b03835f2054161515611ee6565b5f526001602052610bfa6006825f2001825193848092611e03565b0383611ec4565b51918291602083526020830190611d8d565b90503461014b57602036600319011261014b5780355f526001602052815f2091610cf460018060a01b0384541692825194610c5586610c4e8160018501611e03565b0387611ec4565b60ff845194610c6b86610c4e8160028701611e03565b600383015493830154610cc76005850154926007815196610c9a88610c938160068501611e03565b0389611ec4565b015498610cba82519c8d809d6020610120928392815201528d0190611d8d565b918b8303908c0152611d8d565b9460608901526080880152818116151560a088015260081c16151560c086015284820360e0860152611d8d565b906101008301520390f35b90503461014b578160031936011261014b5780359067ffffffffffffffff9060243582811161014b57610d359036908301611cfa565b92845f526001602093818552610d6d60018060a01b03610d5b818b5f2054161515611ee6565b885f52838752895f205416331461212a565b865f52818552875f20818101544210610f8457600581018054610d9360ff821615612245565b610da360ff8260081c1615612169565b895f526002885260ff8b5f2054165f14610f3657895f52600388528a5f205415610f02579084600693925b60ff191617905501928611610eef5750610df285610dec8454611dcb565b84611fc4565b5f90601f8611600114610e69575095610e599291610e4786807fb51288ae628dca25614026175dc22a78631acc1a31f034c68c3fa241ca0fd05c999a5f91610e5e57508160011b915f199060031b1c19161790565b90555b51938385948552840191612013565b0390a2005b90508501355f61060d565b90601f19861690835f52855f20915f5b818110610eda5750917fb51288ae628dca25614026175dc22a78631acc1a31f034c68c3fa241ca0fd05c9899939188610e5997969410610ec1575b505086811b019055610e4a565b8501355f1960038a901b60f8161c191690555f80610eb4565b86830135845592840192918701918701610e79565b604190634e487b7160e01b5f525260245ffd5b8a5162461bcd60e51b8152808501899052600e60248201526d6e6f207375626d697373696f6e7360901b6044820152606490fd5b600983015415610f4b57908460069392610dce565b8a5162461bcd60e51b815280850189905260136024820152726e6f2072657665616c656420616e737765727360681b6044820152606490fd5b885162461bcd60e51b8152808301879052601060248201526f353ab233b4b733903737ba1037b832b760811b6044820152606490fd5b90503461014b57606036600319011261014b5780359067ffffffffffffffff906024803583811161014b57610ff29036908401611cfa565b95906044968735875f5260019360209785895260018060a01b039361101d85845f2054161515611ee6565b8a5f52868a52825f209589870154421061137a578b5f5260028b5261104860ff855f20541615612208565b61105e60ff600589015461020f82821615612245565b6107d08211611346578b5f52898b52835f20335f528b52835f20549a8b15611316578b9c9d5f19809d019d8e116113045761109c8e60088b01612111565b50958c87019860ff8a54166112cf5733908854160361129a57908f9392918051948584810191608083526110d460a083018a89612013565b908c85840152336060840152608083015203956110f9601f1997888101835282611ec4565b5190208c8901540361126c5750506002860194841161125a57611126846111208754611dcb565b87611fc4565b5f92601f85116001146111db57505082600998979695936003959361115f935f926106ce5750508160011b915f199060031b1c19161790565b90555b01558360ff198254161790550191825493600160401b8510156111ca5750508201815561118f91906120fc565b819291549060031b9184831b921b191617905533917f30cd907c52cb0d98c4502ca97784ad8dd7813786ea1a7cce6e1594fe96c20b165f80a4005b604190634e487b7160e01b5f52525ffd5b928d85948c9694939416875f52845f20945f905b828210611234575050918593916003989660099d9c9b9a9896941061121d575b50505050811b019055611162565b60f8858a1b161c199101351690555f80808f61120f565b9250939483969783929491839288013581550196019301918f91928d97969594936111ef565b8a60418d634e487b7160e01b5f52525ffd5b5162461bcd60e51b8152808e0192909252600a828d015269189859081c995d99585b60b21b90820152606490fd5b5162461bcd60e51b8152808d01929092526011828c01527034b73b30b634b21039bab136b4ba3a32b960791b90820152606490fd5b505162461bcd60e51b8152808d01929092526010828c01526f185b1c9958591e481c995d99585b195960821b90820152606490fd5b8a60118d634e487b7160e01b5f52525ffd5b8a6c1b9bc818dbdb5b5a5d1b595b9d609a1b8f600d8d6064958a519562461bcd60e51b8752860152840152820152fd5b50825162461bcd60e51b8152808a018b9052600f818a01526e616e7377657220746f6f206c6f6e6760881b818e0152606490fd5b50825162461bcd60e51b8152808a018b9052600f818a01526e3932bb32b0b6103737ba1037b832b760891b818e0152606490fd5b823461014b5761056c61141e9260056113c636611d77565b5f8281526001602052869020546001600160a01b039792906113eb9089161515611ee6565b5f5260016020526008865f20600260205261140c60ff895f20541615612208565b0161141981548310612093565b612111565b50948554169361148260018701549660c060ff600383015496830154169361146981519361145a856114538160028501611e03565b0386611ec4565b610c4e83518099819301611e03565b8051998a998a5260208a015288015260c0870190611d8d565b9260608601521515608085015283820360a0850152611d8d565b823461014b578060031936011261014b576001600160a01b0391602435838116919081359083900361014b576114e1602095825f5260018752855f2054161515611ee6565b5f528352815f20905f528252805f20549051908152f35b823461014b57602036600319011261014b5760209135805f526001835261152b60018060a01b03835f2054161515611ee6565b5f52600182526007815f2001549051908152f35b823461014b57602036600319011261014b5760209135805f526001835261157260018060a01b03835f2054161515611ee6565b5f5260038252805f20549051908152f35b823461014b575f36600319011261014b5760209051600a8152f35b823461014b57602036600319011261014b5760209135805f52600183526115d160018060a01b03835f2054161515611ee6565b5f52600182526008815f2001549051908152f35b823461014b576115f436611d77565b91815f526020906001825260018060a01b039061161782825f2054161515611ee6565b835f526001835261162e82825f205416331461212a565b835f5260018352805f209160058301805460ff81161561179f578061165c60ff6101009360081c1615612169565b875f526002875260ff855f2054165f1461178b57875f5260038752611685855f20548a106121a9565b61ff001916179055856007840155845f526002845260ff825f2054165f1461176057845f52600384526003816116bd88855f206120cf565b505416935b01925f8454945516955f808080868b5af13d1561175b573d6116e3816121ec565b906116f085519283611ec4565b81525f863d92013e5b156117295750519081527f2eb0120759ae6dd1505f3f092609ec7e75433fb2401ad648ebeb5bd4bd55e5b69190a4005b83606492519162461bcd60e51b8352820152600e60248201526d1c185e5b595b9d0819985a5b195960921b6044820152fd5b6116f9565b60038161178261177389600988016120fc565b905490841b1c60088701612111565b505416936116c2565b61179a60098701548a106121a9565b611685565b835162461bcd60e51b8152808a01879052600e60248201526d1b9bdd081a9d5919d959081e595d60921b6044820152606490fd5b823461014b57602036600319011261014b5760209135805f526001835261180660018060a01b03835f2054161515611ee6565b5f52600182526009815f2001549051908152f35b823461014b57600861188b6118d6600261183336611d77565b5f8281526001602052879020546001600160a01b039592906118589087161515611ee6565b5f52600160205261187b875f20916009830161187681548310612093565b6120fc565b90549060031b1c95869101612111565b5092835416946001840154906118b66003860154956118af83518096819301611e03565b0384611ec4565b80519687968752602087015285015260a0606085015260a0840190611d8d565b9060808301520390f35b823461014b5761195a9061056c600260606118fa36611d77565b5f8281526001602052869020546001600160a01b0397929061191f9089161515611ee6565b805f528460205261193560ff885f205416612057565b805f52600360205261194b875f20548310612093565b5f526003602052855f206120cf565b5094855416936119786001870154966118af83518096819301611e03565b8051958695865260208601528401526060830190611d8d565b823461014b57602036600319011261014b5760209135805f52600183526119c460018060a01b03835f2054161515611ee6565b5f526001825260ff6005825f20015460081c1690519015158152f35b90506119eb36611d28565b9095936119fc959295341515611f25565b611a07428311611f63565b5f5495611a1387611fa2565b5f55865f52600190602098828a52875f2092336bffffffffffffffffffffffff60a01b8554161784558084019267ffffffffffffffff93848a11610ac757611a5f8a6105eb8354611dcb565b895f8e6001601f841114611bbb57509080611a8d925f9161077857508160011b915f199060031b1c19161790565b90555b60028501938311611ba857908291611ab185946103058e9a99989754611dcb565b5f918d601f8511600114611b19575050825f80516020612380833981519152989993889593611af4935f926106ce5750508160011b915f199060031b1c19161790565b90555b34600384015582015560075f199101556106c586519283923397349185612033565b91909392601f198416865f52835f20935f905b828210611b7a575050915f805160206123808339815191529a9b959391858b98969410611b61575b505050811b019055611af7565b01355f19600384901b60f8161c191690555f8080611b54565b87849798999a9c9e9b9d5085968294958394970135815501960193018f9b999c9a9897969594939291611b2c565b604188634e487b7160e01b5f525260245ffd5b91601f198116845f52835f20935f905b888d848410611c05575050505010611bec575b5050828a811b019055611a90565b8801355f1960038d901b60f8161c191690555f80611bde565b860135875590950194938401938f935090810190611bcb565b823461014b57602036600319011261014b5760209135805f5260018352611c5160018060a01b03835f2054161515611ee6565b5f526001825260ff6005825f2001541690519015158152f35b823461014b57602036600319011261014b5760209135805f5260018352611c9d60018060a01b03835f2054161515611ee6565b5f52600182526003815f2001549051908152f35b823461014b57602036600319011261014b5760209135805f5260018352611ce460018060a01b03835f2054161515611ee6565b5f526002825260ff815f20541690519015158152f35b9181601f8401121561014b5782359167ffffffffffffffff831161014b576020838186019501011161014b57565b606060031982011261014b5767ffffffffffffffff9160043583811161014b5782611d5591600401611cfa565b9390939260243591821161014b57611d6f91600401611cfa565b909160443590565b604090600319011261014b576004359060243590565b91908251928382525f5b848110611db7575050825f602080949584010152601f8019910116010190565b602081830181015184830182015201611d97565b90600182811c92168015611df9575b6020831014611de557565b634e487b7160e01b5f52602260045260245ffd5b91607f1691611dda565b80545f9392611e1182611dcb565b918282526020936001916001811690815f14611e755750600114611e37575b5050505050565b90939495505f92919252835f2092845f945b838610611e6157505050500101905f80808080611e30565b805485870183015294019385908201611e49565b60ff19168685015250505090151560051b010191505f80808080611e30565b6020810190811067ffffffffffffffff821117611eb057604052565b634e487b7160e01b5f52604160045260245ffd5b90601f8019910116810190811067ffffffffffffffff821117611eb057604052565b15611eed57565b60405162461bcd60e51b815260206004820152601060248201526f189bdd5b9d1e481b9bdd08199bdd5b9960821b6044820152606490fd5b15611f2c57565b60405162461bcd60e51b815260206004820152600f60248201526e1c995dd85c99081c995c5d5a5c9959608a1b6044820152606490fd5b15611f6a57565b60405162461bcd60e51b815260206004820152601060248201526f191958591b1a5b99481a5b881c185cdd60821b6044820152606490fd5b5f198114611fb05760010190565b634e487b7160e01b5f52601160045260245ffd5b601f8211611fd157505050565b5f5260205f20906020601f840160051c83019310612009575b601f0160051c01905b818110611ffe575050565b5f8155600101611ff3565b9091508190611fea565b908060209392818452848401375f828201840152601f01601f1916010190565b9061204d9060409396959496606084526060840191612013565b9460208201520152565b1561205e57565b60405162461bcd60e51b815260206004820152600d60248201526c7075626c696320626f756e747960981b6044820152606490fd5b1561209a57565b60405162461bcd60e51b815260206004820152600d60248201526c0d2dcecc2d8d2c840d2dcc8caf609b1b6044820152606490fd5b80548210156120e8575f52600360205f20910201905f90565b634e487b7160e01b5f52603260045260245ffd5b80548210156120e8575f5260205f2001905f90565b80548210156120e8575f52600660205f20910201905f90565b1561213157565b60405162461bcd60e51b815260206004820152601060248201526f3737ba103137bab73a3c9037bbb732b960811b6044820152606490fd5b1561217057565b60405162461bcd60e51b8152602060048201526011602482015270185b1c9958591e48199a5b985b1a5e9959607a1b6044820152606490fd5b156121b057565b60405162461bcd60e51b81526020600482015260146024820152730d2dcecc2d8d2c840eed2dcdccae440d2dcc8caf60631b6044820152606490fd5b67ffffffffffffffff8111611eb057601f01601f191660200190565b1561220f57565b60405162461bcd60e51b815260206004820152600e60248201526d7072697661746520626f756e747960901b6044820152606490fd5b1561224c57565b60405162461bcd60e51b815260206004820152600e60248201526d185b1c9958591e481a9d5919d95960921b6044820152606490fd5b1561228957565b60405162461bcd60e51b81526020600482015260126024820152711cdd589b5a5cdcda5bdb9cc818db1bdcd95960721b6044820152606490fd5b156122ca57565b60405162461bcd60e51b8152602060048201526014602482015273746f6f206d616e79207375626d697373696f6e7360601b6044820152606490fd5b1561230d57565b60405162461bcd60e51b8152602060048201526011602482015270185b1c9958591e481cdd589b5a5d1d1959607a1b6044820152606490fd5b5f52600260205260ff60405f20541661237057600160205260405f20906009600883015492015490565b600360205260405f2054905f9056fe4e9ff8debce04524518777fdf120513b8f7e1f434da1099fd190d1aae0d495b6a264697066735822122053c32de144e2b6f31cabf48e59d55e268838ab254f16da9c127b24ee8c01476864736f6c63430008180033","linkReferences":{}},"methodIdentifiers":{"MAX_ANSWER_LENGTH()":"fd3a8329","MAX_SUBMISSIONS()":"8e789683","bounties(uint256)":"dc2f8744","createBounty(string,string,uint256)":"2bfa7d60","createPrivateBounty(string,string,uint256)":"e90c8fd0","finalizeWinner(uint256,uint256)":"5a7722f1","getAIReview(uint256)":"e2384c25","getBounty(uint256)":"ee8c4bbf","getPrivateSubmission(uint256,uint256)":"35189e49","getPrivateSubmissionCount(uint256)":"947454c9","getRevealedSubmission(uint256,uint256)":"3efde9ca","getRevealedSubmissionCount(uint256)":"4d4445a0","getReward(uint256)":"1c4b774b","getSubmission(uint256,uint256)":"b7ed7071","getSubmissionCount(uint256)":"7be24cb8","getSubmissionIndex(uint256,address)":"b75daff3","getWinnerIndex(uint256)":"a5b679c2","isFinalized(uint256)":"33727c4d","isJudged(uint256)":"1ffc21be","isPrivateBounty(uint256)":"10960614","judgeAll(uint256,bytes)":"d8964ee9","nextBountyId()":"fd14fad4","revealAnswer(uint256,string,bytes32)":"d5198a71","submitCommitment(uint256,bytes32)":"e6a3d9dc","submitEncryptedCommitment(uint256,bytes32,bytes)":"eff23a46"},"id":0}